:100000000C941F060C9466060C9466060C94660607
:100010000C9466060C9466060C9466060C946606B0
:100020000C9466060C9466060C9431280C940529F1
:100030000C943B1A0C9466060C9466060C946606A7
:100040000C9466060C9466060C9466060C94660680
:100050000C9466060C94921A0C9466060C94660630
:100060000C9466060C9466060C9466060C94660660
:100070000C9466060C9466060C9466060C94660650
:100080000C9466060C9466060C9466060C94660640
:100090000C9466060C9466060C9466060C94660630
:1000A0000C9466060C9466060C946606687474706C
:1000B000733A2F2F716D6B2E666D2F0A00514D4BC9
:1000C00020697320746865206265737420746869A0
:1000D0006E6720657665722100AD00AC00AE00ABA6
:1000E0000044454255473A2064697361626C656417
:1000F0002E0A0044454255473A20656E61626C65A0
:10010000642E0A0000000000000000002A2B2800D6
:1001100000000000000000000000000000000029B6
:10012000000000002C1E3420212224342627252EF6
:10013000362D3738271E1F2021222324252633332E
:10014000362E37381F0405060708090A0B0C0D0E5A
:100150000F101112131415161718191A1B1C1D2F26
:100160003130232D350405060708090A0B0C0D0E46
:100170000F101112131415161718191A1B1C1D2F06
:100180003130354C0000000000000000000000008D
:1001900000000000000000007E0F00D4FFFFFFC73A
:1001A000000000780A0025303862003A200025302F
:1001B0003258000A722F63203031323334353637EB
:1001C0000A000A002530325820006B6579626F61A1
:1001D00072645F7265706F72743A20000A00253095
:1001E0003258006B6579626F6172645F7365745F2A
:1001F0006C65643A2000290A002575002F002575DA
:10020000005D28002564002000256400200025648E
:100210000020002564007C0025303258006D6F7589
:1002200073656B6579205B62746E7C7820792076CB
:1002300020685D287265702F61636C293A205B002D
:100240006D6B5F776865656C5F74696D655F746F12
:100250005F6D6178203D2025640A006D6B5F7768D3
:1002600065656C5F6D61785F7370656564203D20C6
:1002700025640A006D6B5F74696D655F746F5F6DF7
:100280006178203D2025640A006D6B5F6D61785FA9
:100290007370656564203D2025640A006D6B5F699D
:1002A0006E74657276616C203D2025640A006D6B6A
:1002B0005F64656C6179203D2025640A006D6B5F89
:1002C000776865656C5F74696D655F746F5F6D619C
:1002D00078203D2025640A006D6B5F776865656C4A
:1002E0005F6D61785F7370656564203D2025640AE9
:1002F000006D6B5F74696D655F746F5F6D61782011
:100300003D2025640A006D6B5F6D61785F737065D9
:100310006564203D2025640A006D6B5F696E74651D
:100320007276616C203D2025640A006D6B5F646508
:100330006C6179203D2025640A000A00257500368D
:100340003A20776865656C5F74696D655F746F5F8F
:100350006D61783A20000A00257500353A207768EB
:1003600065656C5F6D61785F73706565643A2000E8
:100370000A00257500343A2074696D655F746F5FFB
:100380006D61783A20000A00257500333A206D61CE
:10039000785F73706565643A20000A002575003245
:1003A0003A20696E74657276616C286D73293A2003
:1003B000000A00257500313A2064656C6179282AAD
:1003C00031306D73293A20000A092D2056616C7571
:1003D0006573202D0A004D3E004D25643E20003FF0
:1003E000007365742064656661756C740A00433E31
:1003F000200077686572652064656C74613A2063DB
:100400007572736F723D25642C20776865656C3D4D
:1004100025640A53656520687474703A2F2F656EE1
:100420002E77696B6970656469612E6F72672F77CB
:10043000696B692F4D6F7573655F6B6579730A0022
:100440000A092D204D6F7573656B6579202D0A455E
:1004500053432F713A09717569740A313A09646519
:100460006C6179282A31306D73290A323A09696E34
:1004700074657276616C286D73290A333A096D616F
:10048000785F73706565640A343A0974696D655FF5
:10049000746F5F6D61780A353A09776865656C5FDE
:1004A0006D61785F73706565640A363A09776865CF
:1004B000656C5F74696D655F746F5F6D61780A0A62
:1004C000703A097072696E742076616C7565730A92
:1004D000643A097365742064656661756C74730AA7
:1004E00075703A092B310A646F776E3A092D310A1B
:1004F000706775703A092B31300A7067646F776ED8
:100500003A092D31300A0A7370656564203D206414
:10051000656C7461202A206D61785F737065656415
:10052000202A2028726570656174202F2074696DFF
:10053000655F746F5F6D6178290A003F004D3E2052
:1005400000433E20004C25640A0074696D65725FAB
:1005500072656164333228293A202530346C580A98
:10056000006B6579626F6172645F69646C653A20E3
:1005700025580A006B6579626F6172645F70726FF3
:10058000746F636F6C3A2025580A00686F73745F4C
:100590006B6579626F6172645F6C65647328293A78
:1005A0002025580A000A092D2053746174757320A0
:1005B0002D0A004743433A20382E332E302041562F
:1005C000522D4C4942433A20322E302E3020415693
:1005D000525F415243483A20617672350A004F50CB
:1005E00054494F4E533A204C554641204D4F555398
:1005F000454B45592045585452414B455920434F8E
:100600004E534F4C4520434F4D4D414E44203430C6
:1006100039360A004255494C443A2022302E392EB0
:10062000333622202831323A31303A3238204A618A
:100630006E2031302032303231290A005649443A96
:100640002030784645454428666C656872616429A7
:10065000205049443A2030783030303028424D50D4
:1006600029205645523A203078303030310A004443
:100670004553433A20337831206D656469612062C7
:1006800061736564206D6163726F70616420776966
:1006900074682073696E676C6520726F746172791B
:1006A00020656E636F6465720A000A092D20566525
:1006B0007273696F6E202D0A000A092D20436F6E38
:1006C000736F6C65202D0A4553432F713A0971757C
:1006D00069740A6D3A096D6F7573656B65790A0007
:1006E0000A092D204D61676963202D0A443A0944A7
:1006F00065627567204D65737361676520546F6728
:10070000676C650A583A094D6174726978204465CE
:10071000627567204D6F646520546F67676C652054
:100720002D2053686F77206B6579707265737365E0
:100730007320696E206D61747269782067726964D4
:100740000A4B3A094B6579626F61726420446562B5
:10075000756720546F67676C65202D2053686F772D
:10076000206B65797072657373207265706F727437
:100770000A4D3A094465627567204D6F75736520AF
:10078000546F67676C650A563A0956657273696FEC
:100790006E0A533A095374617475730A433A0941F6
:1007A0006374697661746520436F6E736F6C652046
:1007B0004D6F64650A46312D4631303A09537769E9
:1007C00074636820746F204C6179657220302D3914
:1007D0002028463130203D204C30290A302D393A2E
:1007E0000953776974636820746F204C617965726E
:1007F00020302D390A47524156453A0953776974DA
:10080000636820746F204C61796572203020286104
:100810006C7465726E617465290A423A094A756D95
:100820007020746F20426F6F746C6F616465720A20
:100830004553433A094A756D7020746F20426F6FBB
:10084000746C6F616465722028616C7465726E618E
:100850007465290A453A095072696E7420454550FD
:10086000524F4D2053657474696E67730A4253503A
:100870004143453A09436C65617220454550524FEA
:100880004D0A000A002575002E6E6B726F3A20002B
:100890000A002575002E737761705F6261636B7368
:1008A0006C6173685F6261636B73706163653A204A
:1008B000000A002575002E737761705F677261769C
:1008C000655F6573633A20000A002575002E6E6F20
:1008D0005F6775693A20000A002575002E737761FD
:1008E000705F72616C745F726775693A20000A000C
:1008F0002575002E737761705F6C616C745F6C6737
:1009000075693A20000A002575002E737761705FC3
:100910007263746C5F726775693A20000A0025750E
:10092000002E737761705F6C63746C5F6C677569C0
:100930003A20000A002575002E636170736C6F63A6
:100940006B5F746F5F636F6E74726F6C3A20000A36
:10095000002575002E737761705F636F6E74726F20
:100960006C5F636170736C6F636B3A20000A0025E3
:10097000303258006B65796D61705F636F6E6669C8
:10098000672E7261773A20000A002575002E6D6F80
:100990007573653A20000A002575002E6B65796233
:1009A0006F6172643A20000A002575002E6D617433
:1009B0007269783A20000A002575002E656E616222
:1009C0006C653A20000A0025303258006465627573
:1009D000675F636F6E6669672E7261773A20000AFF
:1009E0000025750064656661756C745F6C6179657E
:1009F000723A20003F000A6D6F7573653A206F668A
:100A0000660A000A6D6F7573653A206F6E0A000AF8
:100A10006B6579626F6172643A206F66660A000ADC
:100A20006B6579626F6172643A206F6E0A000A6DBD
:100A300061747269783A206F66660A000A6D6174A3
:100A40007269783A206F6E0A000A64656275673AC7
:100A5000206F66660A000A64656275673A206F6EE9
:100A60000A000A0A4A756D70696E6720746F206209
:100A70006F6F746C6F616465722E2E2E2000433E82
:100A80002000436C656172696E6720454550524F86
:100A90004D0A006565636F6E6669673A0A005B73AD
:100AA0005D004B6579626F6172642073746172746A
:100AB0002E0A005B575D005B535D005B525D005B7F
:100AC000445D005B435D0004033000000008034206
:100AD000004D0050000000100366006C00650068C7
:100AE0000072006100640000000403090409025B55
:100AF00000030100A0FA090400000103010100093C
:100B000021110100012240000705810308000A09A4
:100B100004010001030000000921110100012281EC
:100B2000000705820320000A0904020002030000F6
:100B30000009211101000122220007058303200082
:100B40000107050303200001120110010000000845
:100B5000EDFE00000100010203010631FF0974A14E
:100B6000010975150026FF00952075088102097698
:100B7000150026FF00952075089102C005010902A5
:100B8000A10185020901A100050919012905150026
:100B90002501950575018102950175038101050106
:100BA000093009311581257F9502750881060938BC
:100BB0001581257F950175088106050C0A380215F7
:100BC00081257F950175088106C0C005010980A1B6
:100BD00001850319012AB700150126B70095017593
:100BE000108100C0050C0901A101850419012AA08A
:100BF00002150126A002950175108100C0050109AA
:100C000006A101050719E029E715002501950875DA
:100C10000181029501750881010507190029FF1559
:100C20000026FF00950675088100050819012905B1
:100C3000950575019102950175039101C00011247C
:100C40001FBECFEFDAE0DEBFCDBF04B603FE27C084
:100C50008091490290914A02A0914B02B0914C02BE
:100C60008730904BA740B04BD1F4109249021092BC
:100C70004A0210924B0210924C0214BE84B7877F36
:100C800084BF0FB6F894A895809160008861809326
:100C90006000109260000FBEE0E0F8E3099511E0FB
:100CA000A0E0B1E0E0EBF6E502C005900D92A43AB9
:100CB000B107D9F722E0A4EAB1E001C01D92A9343E
:100CC000B207E1F70E9457250C94322B0C940000D8
:100CD000FF93EF93E091A401F091A501309709F003
:100CE0000995EF91FF910895FC018591803011F0F5
:100CF000EFDFFBCF0895FF27E0E230E247FF0CC0B3
:100D0000419597FF09C0EDE26095709580959095AB
:100D1000611D711D811D911D27FF02C0219530E3CA
:100D200050E2AA27660F771F881F991FAA1FA417D2
:100D300010F0A41B63955A95A9F7AA3008F0A95F93
:100D4000A05DAF93F395611571058105910541F79C
:100D5000ED3211F4EF93F395F21718F43F93F395F6
:100D6000FBCF8F91B5DFFA95E1F70895E991F991FD
:100D70008591803021F0853219F0AADFF9CF0895EE
:100D800020E0E89455915532C1F3503311F4689442
:100D900055915A3348F4505390F3220F022E220FEC
:100DA000220F200D250FF4CF0EF4219589919991F2
:100DB000533619F3533729F1533559F1BC018827BC
:100DC0009927E8945C3621F489919991689455911A
:100DD000543639F446EF7EF077FF0DC08FEF9FEF6A
:100DE0000AC055374AE039F0583540E121F0523613
:100DF00042E009F00895FF93EF937DDFEF91FF91BB
:100E0000B7CFFF93EF93FC0181918030B9F360DF9E
:100E1000FBCFFF93EF9368DFF1CFDF93CF93CDB795
:100E2000DEB72596A3DFCF91DF91089588302DE5B9
:100E3000920729F089309D4559F081E00895FB0122
:100E400082818823D1F38DEB90E00E944308F5CF97
:100E5000FB018281882389F38CEA90E0F6CF81112F
:100E600006C089EA611101C08AEA0C94AD10813094
:100E700029F481E56111F9CF82E5F7CF089581E08A
:100E800008950C94160708950C9443071F93CF936D
:100E9000DF9300D000D00F92CDB7DEB749835A83DD
:100EA0006B833091BB0189819A8131111DC066230A
:100EB000B9F02223A9F00E949C17182F682F89816E
:100EC0009A810E944D1769817A81812F0F900F902E
:100ED0000F900F900F90DF91CF911F910C94C1084C
:100EE0000E947717182FEFCF0E949C1769817A8193
:100EF000EDCFFC01262F4081518162817381848175
:100F00000C944607CF93DF93EC0160E00E947907D1
:100F1000BE01DF91CF910C944407FF920F931F9372
:100F2000CF93DF93E82FF0E0EC5FFE4FF490C82FF3
:100F3000C695C695C695D0E0FE01EC56FE4F0491CD
:100F4000877010E0082E02C0159507950A94E2F705
:100F500001701127CC57DE4FFE01C491D0E002C0D2
:100F6000D595C7958A95E2F7C170DD270115110562
:100F700019F081EE0E94C00F209719F086EE0E94B2
:100F8000C00F8F2D0E94AD10CD2B19F086EE0E9460
:100F90005710012B41F081EEDF91CF911F910F91FE
:100FA000FF900C945710DF91CF911F910F91FF90FC
:100FB0000895EF92FF920F931F93CF93DF938C01CD
:100FC000F62E8AE0E82EF8018491882309F454C0B3
:100FD000813009F04DC0E8012196FE0184918130F5
:100FE00091F42196FE0184910E94AD108E010F5F55
:100FF0001F4F8F2D815038F3EFE9FFE03197F1F764
:1010000000C00000F7CF823039F4E8012296FE01DB
:1010100084910E94C00FEACF833039F4E801229610
:10102000FE0184910E945710E1CF8430F9F6E80167
:101030002296FE01249190E080E0FE01319620533B
:10104000330B2A30310548F0019780F2EFE9FFE0D9
:101050003197F1F700C00000F7CFE89EA001E99EAC
:10106000500D1124C901840F951F2491EF01E5CF84
:101070000E948D07E801BACFDF91CF911F910F91A8
:10108000FF90EF90089560E00C94D9070E94F0184B
:10109000811102C00E948D190C94A80A0C94AB0A0D
:1010A00008950C94500881E008950C945308CF9350
:1010B000C82F0E9451088C2FCF910C945508089589
:1010C0000E942F130E945F082FEF84E39CE02150C1
:1010D00080409040E1F700C000000C94B61A0F93D6
:1010E0001F93CF93DF93EC0161E00E9479078C019D
:1010F000BE010E944107882311F1BE01C8010E9470
:10110000960C8823E1F0BE01C8010E94D70C882309
:10111000B1F0BE01C8010E94FA0D882381F08A81D6
:10112000882341F101308CE5180779F00E3D8CE5FC
:101130001807E9F001151C45E9F40E94600880E0F9
:10114000DF91CF911F910F91089590910E02892FF9
:101150008E7F90FF816080930E0280FF05C083EF39
:1011600090E00E947406EBCF81EE90E0FACF0E94EF
:101170008D19E5CFCE01DF91CF911F910F910C9486
:101180003F07272F260F3327331FF90134E0839FB2
:10119000C0011124E80FF91FEE0FFF1FE752FF4FA8
:1011A000859194910895CF93DF930E94C1080E9486
:1011B000CD09EC01811521E5920708F042C08115A7
:1011C00030E5930708F09DC0883E910530F5803EDC
:1011D000910508F092C0883A910588F4853A910506
:1011E00008F084C08130910509F487C0009709F4A4
:1011F00084C0049708F081C0D0E0C0E07EC08F3B7F
:101200009105D0F7C85AD0E0CC0FDD1FCB5EDE4F82
:101210000990D881C02DD46470C08115904250F4DB
:10122000C11581E0D80708F068C0C03FD10520F3A0
:10123000D06563C0C11590E4D907F0F2DF70D06AC1
:101240005CC0811525E5920700F5811534E593070B
:1012500008F08BC0811543E5940708F073C0C115F1
:1012600082E5D80708F469C0CE018370992721E090
:1012700030E002C0220F331F8A95E2F7C695C6956B
:1012800080E2C89FE001112454C0C11599E5D90737
:10129000A8F4C11528E5D20708F06CC0C11536E5E1
:1012A000D30708F0A9CF8C2F0E94640AC82FD0E082
:1012B000DC2FCC27CC27DF71D0621FC0C1154AE5D7
:1012C000D40708F45CC0CE0190568115904208F016
:1012D00093CF8D2F8F710E94640A90E0982F8827FA
:1012E00088279F719C012C2BE901E6CFC55AD0E0DD
:1012F000CD5BDE4FC881D0E0D064CE01DF91CF91CD
:101300000895E4E096958795EA95E1F783702C2F90
:1013100026952695237040E2249F90011124382BB6
:101320008C2F8370C1E0D0E002C0CC0FDD1F8A9506
:10133000E2F7C22BD32BDC68E0CFDC2FCC27C16FC8
:10134000D06ADBCF8370992721E030E002C0220F02
:10135000331F8A95E2F7C695C69590E2C99FE001D2
:101360001124C22BD32BDA68C8CFD82FCC27C46F57
:10137000D06AC3CFDC2FCC27C06FD06ABECF8C2FF2
:101380008F700E94640A34E0D695C7953A95E1F7CC
:10139000CF709C2FEC01D069B0CF82389105B1F1AC
:1013A000B0F48133910509F475C048F48932910590
:1013B00009F469C08A32910509F473C00895853330
:1013C000910509F459C08933910501F10895833ECF
:1013D0009105A9F138F4803E9105F9F0823E91051E
:1013E00049F10895863E9105A9F1873E9105C9F11D
:1013F000843E910519F520913B0221FF1FC0809189
:101400003A0284FD14C087EE90E0089520913A02DC
:101410002370A1F080EE90E0089520913A0220FD23
:1014200047C030913B0230FF09C024FF44C090E028
:1014300080E004C020913A0222FDF7CF0895209168
:101440003A0222FD3BC030913B0230FDE3CF24FF46
:10145000F5CFEDCF20913A0223FFF0CF24FDE7CF67
:10146000D2CF20913A0223FD2CC030913B0231FFB4
:10147000EECF84EE90E0089520913A0225FFDECF72
:1014800089E290E0089520913A0225FFD7CF85E3C5
:1014900090E0089520913A0226FFD0CF8AE290E0B2
:1014A000089520913A0226FFC9CF81E390E0089584
:1014B00089E390E0089583EE90E0089582EE90E055
:1014C000089586EE90E0089590913A0292FF06C04A
:1014D000282F28712830F9F4877F846093FF06C095
:1014E000282F28712831F1F4877E846120913B02F6
:1014F00020FF06C0382F38713830D9F4877F8160DB
:1015000021FF06C0282F28712831D1F4877E816100
:1015100094FD877E0895282F24712430F9F68B7F5F
:101520008860DCCF282F2471243101F78B7E8861FD
:10153000DDCF382F3171313019F78E7F8860E0CFE1
:10154000282F2171213121F78E7E8861E1CF089506
:101550000C94A70A08950C94AA0AE82FF0E0EE5C18
:10156000FD4F80810895CF92DF92EF92FF920F930B
:101570001F93CF93DF9383EB91E00E94740682E385
:10158000E82E82E0F82ED0E0C0E09EEAC92E91E07D
:10159000D92E06EA11E0DF93CF93DF92CF920E941B
:1015A0000D078BEA91E00E947406F70181917F019B
:1015B0000E94D8181F928F931F930F930E940D07BC
:1015C00084EA91E00E94740621968DB79EB7089632
:1015D0000FB6F8949EBF0FBE8DBFC430D105D9F6AB
:1015E000DF91CF911F910F91FF90EF90DF90CF90FF
:1015F000089580EA8A95F1F70895CF93DF93A6E4E2
:10160000B1E04AE451E0C1E0D0E08D91E82FE295ED
:10161000EF70F0E061A18F709E0101C0220F8A95EA
:10162000EAF7922F9095962391A382A1822B82A311
:101630004A175B0751F754985C9A10922E02109249
:10164000320210922F021092330210923002109246
:101650003402109231021092350284E00E949F0BF6
:10166000DF91CF910C9446087F928F929F92AF9218
:10167000BF92CF92DF92EF92FF920F931F93CF937F
:10168000DF9306E411E03EE2832E32E0932E4AE43B
:10169000C42E41E0D42E712CAA24A394B12CF801BD
:1016A00081918F01C82FC295CF70D0E099A18F7022
:1016B000750101C0EE0C8A95EAF7892F8E2989A35E
:1016C0008AA1FE2CF0948F218AA30E94F90A89B185
:1016D00090E024E0959587952A95E1F7809590957F
:1016E0008170992729A1F222F9A22AA1E22AEAA26D
:1016F000F40121914F01281701F13197808381E096
:10170000782AC016D10659F6272D44E062E372E02C
:101710008EE292E00E94A00B0E944E08872DDF917E
:10172000CF911F910F91FF90EF90DF90CF90BF90DE
:10173000AF909F908F907F90089580E0E1CF0895C3
:10174000FF920F931F93CF93DF93F82E092F162F3D
:10175000D72FC42F222349F081E08093A8010E9453
:101760006B1A9093A7018093A6018091A80188230A
:10177000A1F08091A6019091A7010E94831A06977B
:1017800060F0EF2DF02FA12FBD2FCE0FDF2FD11D39
:10179000EC17FD0741F41092A801DF91CF911F9142
:1017A0000F91FF90089581918D93F2CF0C942F07A4
:1017B0005198599A5098589A89B18695817048994C
:1017C00005C090E0892B8093AB01089592E0FACF99
:1017D000E091AB01EE0FEE0FE093AB0129B121FBDD
:1017E000882780F9489932C020E0822BE82BE093CB
:1017F000AB01EF70F0E0E65BFE4F80819091AA01B3
:10180000890F8093AA0184304CF08091A9018F5FE9
:101810008093A90161E080E00E94D60B8091AA012B
:101820008D3F4CF48091A90181508093A90160E023
:1018300080E00E94D60B8091AA01837887FF03C0C5
:1018400081508C6F8F5F8093AA01089522E030E071
:10185000CCCF0F931F93CF93DF93C62FD42F022F9C
:10186000FC0182818823C9F06093AE010E946B1A4B
:101870009093AD018093AC0180E28C0F883008F02A
:1018800050C0C77081E001C0880FCA95EAF7DF91A8
:10189000CF911F910F910C94C0101091AE011613AF
:1018A00035C08091AC019091AD010E94831A883CB3
:1018B000910560F5C0E2CD0F1D17B9F080E2810FF0
:1018C000883040F4177081E001C0880F1A95EAF75C
:1018D0000E94C710C83048F481E09D2F977001C066
:1018E000880F9A95EAF70E94C010802F0E94AD10D1
:1018F000C830B8F4D77081E001C0880FDA95EAF7F4
:10190000DF91CF911F910F910C94C71080E28C0F43
:10191000883038F4C77081E001C0880FCA95EAF7B3
:10192000EFCFDF91CF911F910F9108959C01CB01D3
:10193000233F4CE5340731F190F4283DFCE53F07A7
:10194000E9F0293D4CE5340769F1273D3C4579F440
:1019500026E241EE61EE0E94290C80E00895253FC9
:10196000FCE53F07B9F090F0263F3C45B9F0FC019B
:1019700082818823D1F01092AE01089527E245EECE
:1019800065EEE9CF26E241EE60EEE5CF27E245EED7
:1019900064EEE1CF26E241EE62EEDDCF27E245EED6
:1019A00066EED9CF28E241E0EBCF81E00895CF93F6
:1019B000DF93EC01FB018281882309F419C1C23055
:1019C000FCE5DF07C0F1C6319CE5D90730F09E0188
:1019D0002A5F3C452930310570F50E940319909328
:1019E0003B0280933A02C031ECE5DE0709F4CFC038
:1019F00008F05BC0C8308CE5D80709F4B6C088F59C
:101A0000C430ECE5DE0709F4A8C0C0F4C2308CE5B0
:101A1000D80709F49CC080913A028260C330DC454B
:101A200009F498C080913A0290913B020E941119EA
:101A30000E942F1380E0DF91CF91089580913A02A8
:101A40008061C630ECE5DE0709F484C080913A027B
:101A50008860C730DC4508F47DC080913A0280621E
:101A600079C0CC308CE5D80709F489C070F4809136
:101A70003A028C60CA30ECE5DE0709F46BC008F46A
:101A800078C080913A028E7F65C0CE308CE5D80751
:101A900009F479C080913A028B7FCF30DC4508F49D
:101AA00059C080913A028F7E55C0CB3FECE5DE07EE
:101AB00009F457C030F5C3318CE5D80709F46FC07D
:101AC00078F4C131ECE5DE0709F465C0C231DC45CC
:101AD00009F0A8CF0E942F1380913A028F773AC065
:101AE000C5318CE5D80709F462C008F476C080914E
:101AF0003B028160CA3FDC4509F094CF80933B02F2
:101B000091CFCF3FFCE5DF0709F44DC088F4809109
:101B10003B028D7FCD3F9CE5D90781F380913B024D
:101B20008E7FCE3FDC4550F380913B028360E6CF51
:101B3000C130FDE5DF0709F459C008F444C080E076
:101B4000C230DD4509F06ECF0E948F196BCF8091B6
:101B50003A02816080933A0265CF80913A028460B4
:101B6000F9CF80913B028260C9CF80913A028064B4
:101B7000F1CF0E942F1380913A028068EBCF8091C1
:101B80003A028D7FE7CF80913A02877FE3CF809141
:101B90003A028F7DDFCF80913A028F7BDBCF80913D
:101BA0003A02837FD7CF80913B028C7FA7CF809171
:101BB0003A0282FB992790F921E0922790FB82F963
:101BC00090FB83F9C7CF80913B02982F909591703D
:101BD0008E7F892B90FB81F991CF0E942F139091DA
:101BE0003A02892F97FB87F98058B4CF81E0ACCFB8
:101BF00081E021CFCF93DF93EB0186319C4511F536
:101C00000E9431189A81992399F08A7A91E009F417
:101C100090E09093AF01811109C089E20E940C18F5
:101C20000E94701880E0DF91CF91089585E3F6CF90
:101C30008091AF01811104C089E20E941318F0CF96
:101C400085E3FBCF81E0EFCF9093B5018093B401A2
:101C50000895E091B401F091B501309721F0019021
:101C6000F081E02D099480E00895EF92FF920F93A8
:101C70001F93CF93DF938C01E091B401F091B501F4
:101C80003097C1F10280F381E02D099580910E0219
:101C900082FF30C080FF04C08AEC91E00E9474068D
:101CA000D0E0C0E084ECE82E81E0F82E80910E02B6
:101CB00080FF0EC0F801EC0FFD1F80811F928F93F3
:101CC000FF92EF920E940D070F900F900F900F90D0
:101CD0002196C830D10551F780910E0280FF0AC0CD
:101CE00082EC91E0DF91CF911F910F91FF90EF90E7
:101CF0000C947406DF91CF911F910F91FF90EF909C
:101D00000895E091B401F091B501309739F022E0E7
:101D1000DC012C930480F581E02D09940895209135
:101D2000B2013091B3012817390771F09093B301D4
:101D30008093B201E091B401F091B501309721F0A8
:101D40000680F781E02D099408952091B00130912B
:101D5000B1012817390771F09093B1018093B00158
:101D6000E091B401F091B501309721F00084F18544
:101D7000E02D0994089585B7806885BF85B7806890
:101D800085BF0895089508950C94C20E08950C948B
:101D9000C60E0E94BB0E0E94C30E0C94C40E81E0BE
:101DA00008950C94CF0E0E94621A0E94FD0A0E94B0
:101DB000DA1A0E94D80B0C94C70ECF93C82F8091CB
:101DC0000E0282FF1EC080FF1CC083EE91E00E94C5
:101DD000740680910E0280FF14C01F92CF938EED87
:101DE00091E09F938F930E940D0780910E020F90B8
:101DF0000F900F900F9080FF04C08CED91E00E9437
:101E000074068C2FCF910C945708BF92CF92DF921B
:101E1000EF92FF920F931F93CF93DF93CDB7DEB76F
:101E20002A970FB6F894DEBF0FBECDBF0E94340BC9
:101E30000E94D10E8823E9F087EBC82E81E0D82ECE
:101E400010E000E0B02E802F0E94AD0AF82EF601BF
:101E5000E1906F01E81641F080910E0281FD0E9431
:101E6000B30AEF24E0FC16C00F5F1F4F04301105CA
:101E700049F78FEF89838A831B820E946B1A8160E6
:101E8000782F9D838C8349815A816B818D810E943B
:101E9000910F18C01E82BF828F2D817088870E948B
:101EA0006B1A8160782F9A8789874E815F81688558
:101EB0008A850E94910FF801E954FE4F808191E0DC
:101EC000892780830E94E80B0E94E91C0E94290E4A
:101ED0009091B6018917A9F00E94290E8093B6014E
:101EE0002A960FB6F894DEBF0FBECDBFDF91CF911B
:101EF0001F910F91FF90EF90DF90CF90BF900C94C7
:101F0000DD0E2A960FB6F894DEBF0FBECDBFDF916F
:101F1000CF911F910F91FF90EF90DF90CF90BF90E6
:101F20000895CF93DF93CDB7DEB72B970FB6F89414
:101F3000DEBF0FBECDBF4F83588769877A878B87F7
:101F40001E821D8285E0FE013796DE01119601900A
:101F50000D928A95E1F749815A816B817C818D814F
:101F60009E812B960FB6F894DEBF0FBECDBFDF91DA
:101F7000CF910C94A515FC01808191810C94DE1702
:101F8000CF93C82F882309F490C08238C1F40E94EF
:101F9000290E81FD8AC089E30E940C180E947018E6
:101FA0002FEF81EE94E0215080409040E1F700C097
:101FB000000089E30E941318CF910C9470188338A5
:101FC000A1F40E94290E80FD70C083E50E940C18C8
:101FD0000E9470182FEF81EE94E0215080409040D5
:101FE000E1F700C0000083E5E5CF8438A1F40E944A
:101FF000290E82FD5AC087E40E940C180E947018B6
:102000002FEF81EE94E0215080409040E1F700C036
:10201000000087E4CFCF8CEF8C0F813AB8F48C2F7F
:102020000E94DA21811141C06C2F809100019091B2
:1020300001010E94A619882329F08C2F0E941318F1
:102040000E9470188C2F0E940C18B6CF80E28C0F63
:10205000883048F4C77081E001C0880FCA95EAF75C
:102060000E943418A9CFEBE5EC0FE33040F4F0E028
:10207000E857FE4F808190E0CF910C948F0EE8E5F9
:10208000EC0FE73150F4F0E0EE0FFF1FE65AFE4F81
:1020900080819181CF910C94A50EC03F30F08C2FA0
:1020A0000E94751BCF910C945C1CCF9108958823DE
:1020B00009F452C0823871F40E94290E81FF4CC08D
:1020C00089E30E940C180E94701889E30E9413187B
:1020D0000C947018833859F40E94290E80FF3CC07C
:1020E00083E50E940C180E94701883E5EFCF8438B6
:1020F00059F40E94290E82FF2FC087E40E940C1819
:102100000E94701887E4E2CF9CEF980F913AF0F2AA
:1021100090E2980F983050F4877091E001C0990FC9
:102120008A95EAF7892F0E943A18D2CF9BE5980F3B
:10213000933020F490E080E00C948F0E98E5980F97
:10214000973120F490E080E00C94A50E803F20F0C1
:102150000E94DD1B0C945C1C0895CF93C82F0E9435
:10216000C00FC93349F42FEF87EE93E02150804030
:102170009040E1F700C000008C2FCF910C945710D5
:10218000882321F00E9434180C9470180895882335
:1021900021F00E943A180C9470180895BF92CF92C3
:1021A000DF92EF92FF920F931F93CF93DF936C0117
:1021B000D62FC72FFC01058102950F7012811111D6
:1021C0000E9451180E942A18E82E882391F01123AA
:1021D000E9F08C2F807F803421F080E28D0F8830F1
:1021E000A8F082E00E94BB180E942A1891E0E82E15
:1021F000E926BC2EB2949FE0B922FBE0FB15A8F1C2
:10220000EB2DF0E0EC5CF44D0C94D62AE12CF1CFF0
:102210000C2F0F70C07F11F00295007F1123A9F0E1
:10222000002359F080E28D0F883010F0D11109C0E1
:10223000802F0E9434180E9470188D2F0E94C00FAA
:1022400014C0802F0E944418F6CF8D2F0E94571083
:10225000002359F080E28D0F883010F0D1112CC08E
:10226000802F0E943A180E9470182B2D2850330B93
:102270002430310520F40E94290E0E945708EE20D8
:1022800009F48EC10E94261880FD8AC1F6011282CF
:102290000E9420180E94B116C6010E94F1120E94ED
:1022A0002018DF91CF911F910F91FF90EF90DF9059
:1022B000CF90BF900C94D216802F0E944A18D3CF93
:1022C0002C2F2F70F22EC07FC03219F0F29480EFC5
:1022D000F822DD2369F0D13049F1112391F1002377
:1022E00051F1F601858180FFA8CF8F70858323C0CF
:1022F000112381F0011106C00E9457188F290E94F6
:10230000C010B3CF0130C1F70E9457188F290E9427
:102310005D18ABCF011106C00E9466188F2D0E9478
:10232000C710A3CF013009F4A0CFF6CF112329F0B5
:10233000063008F09ACF8F2DE2CF053008F095CF08
:10234000EDCF002359F3D93349F4FFEF27EE33E003
:10235000F15020403040E1F700C000008D2F0E9476
:10236000571083CF8C2F86958695837069F08130C6
:1023700009F07BCF8D2F9C2F9370111102C090E03C
:1023800080E00E94A50E71CF8D2F9C2F93701111AC
:1023900002C090E080E00E948F0E67CF8D2F112346
:1023A00029F00E94751B0E945C1C5FCF0E94DD1B00
:1023B000FACF8C2F837009F041C0111156CF4D2FE9
:1023C000429546954770440F440F0D2F0F7010E053
:1023D00030E020E0042E04C0000F111F221F331F25
:1023E0000A94D2F760E070E0CB01D4FF0FC06FE039
:1023F00070E080E090E004C0660F771F881F991F8F
:102400004A95D2F76095709580959095C695C6953A
:10241000C370602B712B822B932BC23049F058F480
:10242000C13019F00E94631620CF0E9451161DCFB3
:102430000E9475161ACF0E944F1617CF869511234A
:1024400011F08C2F8170882309F40FCF4D2F429506
:1024500046954770440F440F0D2F0F7010E030E089
:1024600020E0042E04C0000F111F221F331F0A9406
:10247000D2F760E070E0CB01D4FF0FC06FE070E0F6
:1024800080E090E004C0660F771F881F991F4A956F
:10249000D2F76095709580959095C695C695C37056
:1024A000602B712B822B932BC23049F058F4C13032
:1024B00019F00E942817D9CE0E941617D6CE0E9476
:1024C0003A17D3CE0E948B16D0CECF70112329F0AD
:1024D0008C2F0E94B1168D2F12CF8D2F0E94C71006
:1024E0008C2F0E94D216C1CED23F89F160F4D03F2A
:1024F000C9F0D13F29F1112309F442C001119DCE49
:102500008C2F8F7121C0D33F39F1D43FA1F7112314
:1025100069F1CF718C2F0E94B11663E08C2F0E945D
:10252000A618A3CE112341F0053008F09ECE8C2FC3
:102530008F710E94F51699CE063008F096CEF7CF2F
:102540008C2F8F71112369F20E94B1168ECE8C2FC1
:102550008F711123C9F3C5CF112329F08C2F8F71EF
:102560000E949C1682CE0E9497167FCE81E00E9428
:10257000BB18023008F479CE82E00E94BB1875CEF9
:10258000002359F0D93309F0E9CE8FEF97EEE3E05D
:1025900081509040E040E1F7DFCE8C2F8F71A1CFCA
:1025A000DF91CF911F910F91FF90EF90DF90CF902F
:1025B000BF9008950F931F93CF93DF93EC01688131
:1025C00079818A810E94E8178C010E944C170E9431
:1025D0004E16B801CE01DF91CF911F910F910C944F
:1025E000CE10CF93DF93EC018B819C81892B29F056
:1025F0008881998189238F3F59F4DF91CF91089584
:10260000CE010E94DA12CE01DF91CF910C948207A5
:10261000CE010E946F088111F3CF0E942A188823EF
:1026200061F38A81882349F382E0DF91CF910C9492
:10263000BB180E9451180E9454180E9470180E94E2
:10264000031E0E945C1C90E080E00E948F0E90E0D0
:1026500080E00C94A50E0E941A180C9419130E9485
:1026600041180C942B13E92FE295EF70E250EE30F5
:1026700070F4F0E0E05CF44D0C94D62A803F19F041
:1026800020F4883E20F481E00895843FE1F380E067
:102690000895883EC0F3813FD1F7F5CF93FB88279B
:1026A00080F908950E94DE170C943313CF93DF93C3
:1026B00000D000D00F92CDB7DEB70F900F900F90E3
:1026C0000F900F90DF91CF910895CF93DF9300D0BB
:1026D00000D000D0CDB7DEB726960FB6F894DEBF97
:1026E0000FBECDBFDF91CF9108951F93CF93DF939E
:1026F000C091BC0116E08091BD018C1304C0DF9134
:10270000CF911F910895D0E01C9FF0011D9FF00D07
:102710001124E254FE4F4081518162817381848192
:1027200095810E9465132196C770E5CF4091EE0117
:102730005091EF016091F0017091F1018091F201EF
:102740009091F3010C9465131F93CF93DF938091C5
:10275000F301807FA9F48091F001882389F08091B2
:10276000BC01C091BD016091EE017091EF01A0919B
:10277000F101B091F201D62FD72316E0C81304C09F
:10278000DF91CF911F91089590E0109711F0DF3FF6
:1027900019F401968770F2CF189F9001199F300DA0
:1027A0001124F901E254FE4F41814713F2CF4081D9
:1027B0004613EFCF42814111ECCF438154814A1B34
:1027C0005B0B483C510528F78091F3018F708061C5
:1027D0008093F301F901ED53FE4F80818F7080618A
:1027E00080838EEE91E00E94F112DF91CF911F91D4
:1027F0000C947513AF92BF92CF92DF92EF92FF923B
:102800000F931F93CF93DF93CDB7DEB761970FB6CA
:10281000F894DEBF0FBECDBF8C0185E0F801DE016C
:102820001D9601900D928A95E1F7F8014081518142
:10283000E2808EEEC82E81E0D82E6091F101709179
:10284000F2016115710509F461C19091EE012091C9
:10285000EF01892F82238F3F09F458C1A380B480F0
:10286000F090F001F501E61BF70BFF2009F4FCC026
:102870008091F301382F307FE83CF10508F0B2C0B9
:10288000311179C0FE2C251323C0941321C0E1100F
:102890001FC08F7080618093F3010E949613C60160
:1028A0000E94F1128091F301F80185838F2D6196CA
:1028B0000FB6F894DEBF0FBECDBFDF91CF911F9151
:1028C0000F91FF90EF90DF90CF90BF90AF90089561
:1028D000AB2829F0842F85238F3F09F033C180E096
:1028E000F82FF170DF2E80FF3CC08091BC01209159
:1028F000BD0136E0821315C04D875E878D859E85AC
:102900000E94DE17292F22952F702230F0F02430FC
:1029100018F59F70F1F0F8019581907FD1F4D12CDA
:102920001EC090E0389FF001399FF00D1124E25451
:10293000FE4F6181651306C06081641303C062812C
:102940006E110FC001968770D5CF9F7011F088234C
:1029500031F3805E883018F3C8010E94F112FD2C1B
:10296000A5CFEE2009F4A2CF8091F301816080937E
:10297000F301F12C9BCF251306C0941304C0F8017A
:10298000EE2009F48DC04D875E878D859E850E945F
:102990005213882319F1EE2009F18091F30180325E
:1029A00070F02091EE013091EF0138872F83198666
:1029B000BB86AA868C87CE0107960E94F11286E01C
:1029C000F801AEEEB1E001900D928A95E1F70E9418
:1029D000A4130E949613FF24F39468CFC8010E94A9
:1029E000F112F9CF311113C07A2DB98AA88A6E2D50
:1029F00089890E9456138EEE91E00E94F11286E0C2
:102A0000F60111928A95E9F70E949613B2CF251329
:102A10000FC094130DC0E1100BC0F8018583C801ED
:102A20000E94F11286E0F60111928A95E9F73ECFF5
:102A30004D875E878D859E850E945213882371F293
:102A4000EE2061F28091F301803208F4B8CF20913A
:102A5000EE013091EF013A8329831B82BD82AC8263
:102A60008E83CE010196A9CFE83CF10508F041C064
:102A7000FE2CEE2009F4B2CF25132AC0941328C0EF
:102A80008091F30180FD1BC0982F907FC1F0F80169
:102A90008583903F31F0982F907F905F8F70892BC6
:102AA0008583C8010E94F11286E0F801AEEEB1E024
:102AB00001900D928A95E1F70E949613F7CE86E079
:102AC000F801AEEEB1E001900D928A95E1F7EECEFD
:102AD0004D875E878D859E850E94521381116FCF31
:102AE0008091F30181608093F301C8010E94F1128B
:102AF000DDCE7A2DB98AA88A6E2D89890E94561357
:102B000086E0F60111928A95E9F7D6CFEE2009F416
:102B100065CF4D875E878D859E850E945213F82E66
:102B2000882309F45BCF86E0F801AEEEB1E00190B6
:102B30000D928A95E1F78EEE91E00E94BB0F0E9404
:102B4000A413BACF81E08E25CBCE1F93CF93DF9312
:102B5000CDB7DEB72C970FB6F894DEBF0FBECDBF52
:102B60004F83588769877A878B879C87CE01079622
:102B70000E94FA13882369F08A859B85892B39F096
:102B80004F815885842F85238F3F09F071C016E04F
:102B90005FC086E0FE013796DE01119601900D922E
:102BA0008A95E1F78A859B85892B89F388859F81A2
:102BB00089238F3F61F32091BD0130E0C901019667
:102BC000877099274091BC014817190671F40E943B
:102BD0002F131092BD011092BC0186E0EEEEF1E0E1
:102BE000DF011D928A95E9F7D2CF96E0929FD0013E
:102BF000939FB00D1124A254BE4FFE013196019057
:102C00000D929A95E1F78093BD010E947513BFCF95
:102C1000819FC001112482549E4F0E94FA13882381
:102C2000E9F0E091BC011E9FF0011124E254FE4F37
:102C30004081518162817381848195810E946513F5
:102C40008091BC0190E00196877099278093BC0128
:102C50008091BC019091BD018913DACF2C960FB6FB
:102C6000F894DEBF0FBECDBFDF91CF911F910895C5
:102C700069857A858B859C850E94651388CF089528
:102C80000C943F160E9440166093FD017093FE0164
:102C90008093FF01909300020C94191308950C94F3
:102CA00042160F931F930091FD011091FE01209198
:102CB000FF0130910002602B712B822B932B1F910F
:102CC0000F910C9442160F931F930091FD011091E8
:102CD000FE012091FF0130910002602371238223C5
:102CE00093231F910F910C9442160F931F93009101
:102CF000FD011091FE012091FF013091000260273B
:102D00007127822793271F910F910C9442160C94E0
:102D10003F160C9487160E9489166093F9017093F0
:102D2000FA018093FB019093FC010C94191360E06D
:102D300070E0CB010C948B160F931F9341E050E091
:102D400060E070E08A019B0104C0000F111F221F88
:102D5000331F8A95D2F7C901B8011F910F910C94C6
:102D60008B160F931F9341E050E060E070E004C0C9
:102D7000440F551F661F771F8A95D2F78091F9017E
:102D80009091FA01A091FB01B091FC018A019B0195
:102D9000082B192B2A2B3B2BC901B8011F910F912E
:102DA0000C948B160F931F9341E050E060E070E0AD
:102DB00004C0440F551F661F771F8A95D2F7CB01B9
:102DC000BA0160957095809590950091F9011091E8
:102DD000FA012091FB013091FC01602371238223D1
:102DE00093231F910F910C948B160F931F9341E027
:102DF00050E060E070E004C0440F551F661F771F6D
:102E00008A95D2F78091F9019091FA01A091FB0186
:102E1000B091FC018A019B01082719272A273B272B
:102E2000C901B8011F910F910C948B160F931F933A
:102E30000091F9011091FA012091FB013091FC0100
:102E4000602B712B822B932B1F910F910C948B165F
:102E50000F931F930091F9011091FA012091FB014A
:102E60003091FC0160237123822393231F910F91E2
:102E70000C948B160F931F930091F9011091FA0196
:102E80002091FB013091FC01602771278227932755
:102E90001F910F910C948B160895980F892F8770AE
:102EA00041E001C0440F8A95EAF79695969596956C
:102EB00085E0989FF0011124EC50FE4F30E020E0B7
:102EC00070E05191DF011197CB01022E02C096955F
:102ED00087950A94E2F78170819585278423852759
:102EE0008C932F5F3F4F2530310559F70895980F88
:102EF000692F677096959695969585E0989FF00155
:102F00001124EC50FE4F50E040E080E0219130E091
:102F1000062E02C0369527950A94E2F721703327D2
:102F2000042E01C0220F0A94EAF7822B4F5F5F4FF5
:102F30004530510559F70895BF92CF92DF92EF9235
:102F4000FF920F931F93CF93DF938C01C090F901F1
:102F5000D090FA01E090FB01F090FC018091FD011E
:102F60009091FE01A091FF01B0910002C82AD92AD8
:102F7000EA2AFB2ACFE1D0E0BC2ED701C6010C2EF5
:102F800004C0B695A795979587950A94D2F780FDCA
:102F90000EC0219788F7B12C8B2DDF91CF911F9117
:102FA0000F91FF90EF90DF90CF90BF900895B80100
:102FB0008C2F0E94D308019761F3EECFCF93DF935C
:102FC000EC010E949C17BE01DF91CF910C94D308B5
:102FD0001F93CF93DF93EB019091BB01992331F0C5
:102FE000CB01DF91CF911F910C94DE17882379F0EC
:102FF000CB010E949C17182F682FCE010E944D17FD
:10300000BE01812FDF91CF911F910C94D308CB018A
:103010000E947717182FF4CF682F809100019091AC
:1030200001010C94DC19682F80910001909101013D
:103030000C94DE1980910001909101010C94E0192B
:10304000809101028595859585950895809101026D
:103050008770089590910102977081E009F480E0F3
:10306000089580910D02089590910D02892B80930F
:103070000D020895809590910D02982390930D0272
:10308000089510920D02089590910C02892B80935F
:103090000C020895809590910C02982390930C0255
:1030A000089510920C02089510920B0208958091D9
:1030B0000202089508950C945A18909102029817EC
:1030C00021F0809302020C945B1808958091020213
:1030D000882329F01092020280E00C945B18089576
:1030E000E0910001F091010180910D028083E09157
:1030F0000001F0910101808190910C02892B808365
:10310000E0910001F0910101808190910B02892BE7
:10311000808390910202992381F0E0910001F09167
:1031200001018081892B80838091000190910101B0
:103130000E94941981110E9466188091000190915B
:1031400001010C94350E08950C94A31898E0899F02
:1031500090011124622B609301020E94B1168091AC
:1031600001028595859585950C94A418109201020D
:1031700080E00C94A418909101028095892380939B
:103180000102282F277071F4282F082E000C330B12
:103190009217130639F08595859585950E94D2166C
:1031A0000C94B61808959093A5018093A4010895F6
:1031B000829590E09C01220F331F220F331F2C7C3D
:1031C00095958795959587958373282B30E0C90150
:1031D000880F991F8A7A359527952575822B089532
:1031E00090E080E00E94F82A21E08C3E9E4F09F09A
:1031F00020E0822F089582E090E00C94F02A83E092
:1032000090E00C94F02ACF9384E090E00E94F02AA2
:10321000C82F81E290E00E94F02A982F8C2FCF9146
:103220000895CF93C92F682F84E090E00E94FE2A72
:103230006C2F81E290E0CF910C94FE2AAB01BC018F
:103240008FE090E00C94102BAB01BC0183E190E087
:103250000C94102B60E070E0CB010C94241960E01A
:1032600070E0CB010E941E190C942A196CEE7EEFBF
:1032700090E080E00E941C2B60E082E090E00E94E1
:10328000FE2A60E083E090E00E94FE2A1092FD0199
:103290001092FE011092FF011092000260E084E0A3
:1032A00090E00E94FE2A60E081E290E00E94FE2A07
:1032B00060E085E090E00E94FE2A60E086E090E019
:1032C0000E94FE2A6FEF87E090E00E94FE2A40E015
:1032D00050E0BA0188E090E00E94102B60E08DE0A1
:1032E00090E00E94FE2A40E050E0BA0188E190E0C0
:1032F0000E94102B60E087E190E00E94FE2A40E0EF
:1033000050E0BA018CE190E00E94102B60E080E276
:1033100090E00E94FE2A0C942F190C943619682F05
:103320008EE090E00C94FE2A9C012E5F3F4FAC0192
:10333000485F5F4F80E02417350709F40895F901CD
:1033400091919F019923B9F38F5FF5CF662349F0DF
:10335000FC01329608962191261729F0E817F90703
:10336000D1F780E0089581E008959C01FC01329638
:103370009FEF80E04191461751F09F3F19F44111B2
:1033800001C0982F8F5F8630A9F79F3F09F40895F9
:10339000290F311D97FD3A95F90162830895FC01CB
:1033A000329608962191261303C0DF0111971C92D3
:1033B000E817F907B9F708950C94B5190C94CF19CB
:1033C000029626E0FC0111922A95E9F708950895E6
:1033D00008950C94E8190E94E91980914002843004
:1033E00049F110920F0288E190E020E40FB6F894C2
:1033F000A895809360000FBE2093600080E00E943B
:1034000057080E94E91983B7817F846083BF83B71F
:10341000816083BF7894889583B78E7F83BF0FB612
:10342000F894A89580916000886180936000109264
:1034300060000FBE08950895CF930E94E7190E947F
:10344000340B0E941B1AC0E08C2F0E94AD0A811120
:1034500005C0CF5FC430C1F7CF91089581E0FCCFA4
:1034600008950C94301A0E942F130E94290E0E9476
:1034700057080C94311A1F921FB61F9211248F9374
:103480009F93AF93BF9380910F02811113C08091DE
:10349000360290913702A0913802B09139024196DC
:1034A000A11DB11D8093360290933702A09338027C
:1034B000B0933902BF91AF919F918F911F901FBE22
:1034C0001F90189582E084BD93E095BD9AEF97BD5B
:1034D00080936E0008952FB7F894809136029091F2
:1034E0003702A0913802B09139022FBF08952FB74B
:1034F000F894609136027091370280913802909171
:1035000039022FBF08959C014FB7F894809136027D
:1035100090913702A0913802B09139024FBF821BBF
:10352000930B089578941F921FB61F9211248F93C6
:103530009F93AF93BF938091360290913702A091F1
:103540003802B09139020196A11DB11D8093360257
:1035500090933702A0933802B0933902BF91AF9194
:103560009F918F911F901FBE1F90189581E08093AF
:10357000E00080E28093D8001092C9008FE19EE4C1
:103580000197F1F700C0000087E090EBDC01809329
:10359000490290934A02A0934B02B0934C0288E1F7
:1035A0009CE00FB6F894A895809360000FBE9093AE
:1035B0006000FFCF0E94F018811102C00E948D1997
:1035C0000E94FB1880930E020E94031990933B0205
:1035D00080933A020E94FF18682F70E090E080E02C
:1035E0000C944F168091170280FF12C06091070162
:1035F00085E0689FB001112475956795759567956D
:1036000060387105A8F561157105A1F1862F08953F
:1036100081FF09C06091070185E0689FB001112416
:1036200075956795EDCF6091070182FD0AC0809185
:1036300016028823D1F09091060160910701891745
:1036400028F085E0689FB0011124DACF869FB00191
:10365000112485E0869F9001879F300D1124692FEA
:1036600070E0C9010E94C22ACBCF65E070E0CECFE6
:103670008FE7089581E008958091170280FF0CC0C4
:103680006091030170E07595679575956795611573
:10369000710549F1862F089581FF06C060910301ED
:1036A00070E075956795F3CF6091030182FD0BC0C3
:1036B000909116029923A1F060910201809103017B
:1036C000961738F0682F70E06038710500F38FE7C7
:1036D0000895899FC001112470E00E94C22AF4CF8E
:1036E00061E070E0D7CF81E00895803F31F40E941F
:1036F000F21A819580931B020895813F19F40E946C
:10370000F21AF8CF823F31F40E94F21A8195809329
:103710001A020895833F19F40E94F21AF8CF893FE4
:1037200029F40E943C1B80931C0208958A3F21F4D7
:103730000E943C1B8195F7CF8B3F31F40E943C1BCC
:10374000819580931D0208958C3F19F40E943C1BC3
:10375000F8CF843F31F4809119028160809319027F
:103760000895853F21F4809119028260F7CF863F4A
:1037700021F4809119028460F1CF873F21F4809178
:1037800019028860EBCF883F21F480911902806193
:10379000E5CF8D3F31F4809117028160809317024D
:1037A00008958E3F21F4809117028260F7CF8F3FFA
:1037B000B9F7809117028460F1CF90911A02803F8F
:1037C00041F480911B0287FD10921B02992371F036
:1037D0000895813F29F480911B021816ACF3F6CFAF
:1037E000823F81F497FFF2CF10921A0280911B0260
:1037F00090911C02892B90911D02892B49F7109200
:1038000016020895833F19F4191674F3DFCF893F28
:1038100039F480911C021816CCF610921C02D6CFF7
:103820008A3F29F480911C0287FFD0CFF6CF8B3FCF
:1038300039F480911D0287FFC9CF10921D02C6CFB7
:103840008C3F29F480911D021816BCF3BFCF843F32
:1038500031F4809119028E7F80931902B7CF853F92
:1038600021F4809119028D7FF7CF863F21F480915A
:1038700019028B7FF1CF873F21F480911902877F56
:10388000EBCF883F21F4809119028F7EE5CF8D3FE9
:1038900031F4809117028E7F8093170297CF8E3F6D
:1038A00021F4809117028D7FF7CF8F3F09F08ECFE3
:1038B000809117028B7FF0CF80910E0283FF7EC034
:1038C0008DE192E00E947406809119021F928F93FD
:1038D00088E192E09F938F930E940D0786E192E02A
:1038E0000E94740680911A02282F082E000C330BB8
:1038F0003F938F9383E192E09F938F930E940D07F4
:1039000081E192E00E94740680911B02282F082E0C
:10391000000C330B3F938F938EE092E09F938F9335
:103920000E940D078CE092E00E94740680911C02B8
:10393000282F082E000C330B3F938F9389E092E0E1
:103940009F938F930E940D0787E092E00E94740678
:1039500080911D02282F082E000C330B3F938F936C
:1039600084E092E09F938F930E940D0781E092E0A4
:103970000E947406809116021F928F938EEF91E041
:103980009F938F930E940D078CEF91E00E94740625
:10399000809117021F928F9389EF91E09F938F93ED
:1039A0000E940D0786EF91E00E9474068DB79EB7C6
:1039B0004C960FB6F8949EBF0FBE8DBF88E192E083
:1039C0000E94810E0E946B1A90931502809314023C
:1039D0000895CF93DF9300D000D000D0CDB7DEB7ED
:1039E00086E0E8E1F2E0DE01119601900D928A9501
:1039F000E1F780911A0290911B02892B81F080914E
:103A00001202909113020E94831AAC019091160247
:103A1000992331F1809108018417150670F1809186
:103A20001C0290911D02892B91F0809110029091BF
:103A300011020E94831AAC0190911602992309F495
:103A400078C0809104018417150608F480C026967A
:103A50000FB6F894DEBF0FBECDBFDF91CF910895B2
:103A6000209109018AE0289F90011124241735072D
:103A7000B0F69F5F9093160202C09F3FD1F710925D
:103A80001C0210921D0280911A02181624F40E9442
:103A9000F21A80931A0280911A0287FF05C00E94D1
:103AA000F21A819580931A0280911B02181624F451
:103AB0000E94F21A80931B0280911B0287FF05C0AF
:103AC0000E94F21A819580931B0230911A023323CF
:103AD000A1F020911B02222381F045EB3403C001A9
:103AE00011249923F1F090931A0245EB24039001DD
:103AF00011243323D1F030931B020E945C1C80916F
:103B0000140290911502909313028093120286E0A2
:103B1000FE013196A8E1B2E001900D928A95E1F79D
:103B20007ECF81E080931A02E0CF81E080931B0278
:103B3000E4CF209105018AE0289F900111242417E9
:103B4000350708F084CF9F5F9093160202C09F3F15
:103B5000D1F710921A0210921B0280911C021816C3
:103B600024F40E943C1B80931C0280911C0287FF5E
:103B700005C00E943C1B819580931C0280911D0210
:103B8000181624F40E943C1B80931D0280911D0294
:103B900087FF05C00E943C1B819580931D023091D8
:103BA0001C023323A1F020911D02222381F045EB5A
:103BB0003403C00111249923F1F090931C0245EBCA
:103BC0002403900111243323D1F030931D020E946D
:103BD0005C1C8091140290911502909311028093C5
:103BE000100286E0FE013196A8E1B2E001900D924C
:103BF0008A95E1F72CCF81E080931C02E0CF81E031
:103C000080931D02E4CF86E0E8E1F2E0DF011D923F
:103C10008A95E9F71092160210921702089580E42F
:103C200094E00E9474061F9281E08F931F9285E0BA
:103C30008F9382EF93E09F938F930E940D070F90D5
:103C40000F900F900F900F900F900895833009F40C
:103C500045C028F4813061F0823049F10895853003
:103C600009F46AC008F451C0863009F47CC0089594
:103C700080910901482F460F5527551F4F3F510589
:103C800094F4680F60930901809109011F928F934A
:103C90008BE293E09F938F930E940D070F900F90FC
:103CA0000F900F9008958FEF80930901EDCF8091D1
:103CB0000801482F460F5527551F4F3F510554F413
:103CC000680F60930801809108011F928F9389E12A
:103CD00093E0E0CF8FEF80930801F5CF809107014B
:103CE000482F460F5527551F4F3F510554F4680F75
:103CF00060930701809107011F928F9386E093E004
:103D0000C9CF8FEF80930701F5CF80910601482F2F
:103D1000460F5527551F4F3F510554F4680F6093C8
:103D20000601809106011F928F9381EF92E0B2CF3E
:103D30008FEF80930601F5CF80910301482F460F46
:103D40005527551F4F3F510554F4680F60930301E9
:103D5000809103011F928F9388ED92E09BCF8FEFAC
:103D600080930301F5CF80910201482F460F55271C
:103D7000551F4F3F510554F4680F60930201809125
:103D800002011F928F938DEB92E084CF8FEF80938F
:103D90000201F5CF8330C9F128F4813061F082301F
:103DA00019F10895853009F452C008F43FC08630F7
:103DB00009F45EC0089580910901681790F4861B8C
:103DC00080930901809109011F928F938EEA92E0FE
:103DD0009F938F930E940D070F900F900F900F905D
:103DE000089510920901EECF80910801681750F4F0
:103DF000861B80930801809108011F928F938CE9A4
:103E000092E0E6CF10920801F6CF80910701681783
:103E100050F4861B80930701809107011F928F93B6
:103E200089E892E0D5CF10920701F6CF8091060184
:103E3000681750F4861B80930601809106011F923B
:103E40008F9384E792E0C4CF10920601F6CF809161
:103E50000301681750F4861B8093030180910301CE
:103E60001F928F938BE592E0B3CF10920301F6CFB0
:103E700080910201681750F4861B809302018091A3
:103E800002011F928F9380E492E0A2CF1092020170
:103E9000F6CFCF93C82F1F928F9385E495E09F9321
:103EA0008F930E940D0761E070E080E090E004C015
:103EB000660F771F881F991FCA95D2F70E944F1669
:103EC0000F900F900F900F90CF910C942F13CF93D2
:103ED000DF938B3109F4FEC108F0A0C18B3009F4E7
:103EE000BCC108F06AC1863009F4CAC148F4853003
:103EF00009F4A2C184EF99E00E94740680E0D0C169
:103F0000873009F4D0C18830A9F783E99AE00E948C
:103F1000740684EE99E00E9474060E94FF181F92B6
:103F20008F9381EE99E09F938F930E940D078FED01
:103F300099E00E9474060E94FB18C82F8CEC99E04F
:103F40000E9474061F92CF9387EC99E09F938F9302
:103F50000E940D0785EC99E00E9474068BEB99E0B6
:103F60000E9474068C2F81701F928F9388EB99E0CA
:103F70009F938F930E940D0786EB99E00E94740631
:103F80008CEA99E00E947406C1FB882780F91F9291
:103F90008F9389EA99E09F938F930E940D0787EA98
:103FA00099E00E9474068BE999E00E947406C2FBB6
:103FB000882780F91F928F9388E999E09F938F93C8
:103FC0000E940D0786E999E00E9474068DE899E049
:103FD0000E947406C3FBCC27C0F91F92CF938AE8D6
:103FE00099E09F938F930E940D0788E899E00E94C3
:103FF00074060E940319EC0184E799E00E9474069C
:10400000DF93CF938FE699E09F938F930E940D07E4
:104010008DE699E00E94740684E599E00E9474069A
:104020008C2F81701F928F9381E599E09F938F93DE
:104030000E940D078DB79EB780960FB6F8949EBF6D
:104040000FBE8DBF8FE499E00E94740688E399E06B
:104050000E947406C1FB882780F91F928F9385E325
:1040600099E09F938F930E940D0783E399E00E944C
:10407000740681E299E00E9474068D2F81701F9270
:104080008F938EE199E09F938F930E940D078CE1AF
:1040900099E00E9474068AE099E00E947406D69521
:1040A000D1701F92DF9387E099E09F938F930E94D6
:1040B0000D0785E099E00E94740683EF98E00E9466
:1040C0007406C2FB882780F91F928F9380EF98E0D7
:1040D0009F938F930E940D078EEE98E00E947406C6
:1040E0008CED98E00E947406C3FB882780F91F922C
:1040F0008F9389ED98E09F938F930E940D0787ED32
:1041000098E00E9474068DEC98E00E947406C4FB4F
:10411000882780F91F928F938AEC98E09F938F9362
:104120000E940D0788EC98E00E94740686EB98E0E8
:104130000E947406C5FB882780F91F928F9383EB3A
:1041400098E09F938F930E940D0781EB98E00E9467
:10415000740685E998E00E947406C6FB882780F9FA
:104160001F928F9382E998E09F938F930E940D078F
:104170008DB79EB780960FB6F8949EBF0FBE8DBFC9
:1041800080E998E00E94740688E898E00E9474062E
:10419000C7FBCC27C0F91F92CF9385E898E09F9387
:1041A0008F930E940D0783E898E00E9474060F9099
:1041B0000F900F900F9081E073C0803109F4A2C07E
:1041C00080F48E3009F096CE90910E02892F8B7F6D
:1041D00092FF846080930E0282FF91C08FE19AE08B
:1041E00085C0863109F49EC0893109F083CE8AEA00
:1041F00096E00E9474068FE696E00E9474068CE3B7
:1042000096E00E94740684E196E00E9474068EEDAA
:1042100095E00E94740683EB95E021C08A3249F153
:1042200090F4873211F128F48E3108F463CE8D5169
:104230001DC0893209F05ECE82E69AE00E947406C3
:104240000E946008B8CF833468F48A3308F0A1C0B4
:10425000853359F0883309F04DCE80EE96E00E9408
:104260007406A9CF833409F045CE80E00E94491F2F
:10427000A2CF82E89AE00E9474060E948D199BCF1B
:1042800080910E02807F80930E0289EB96E00E945F
:1042900074068EE79AE00E94740681E080931F0204
:1042A000DF91CF91089590910E02892F8E7F90FF1C
:1042B000816080930E0280FF03C086E59AE0CFCF35
:1042C00089E49AE00E94740680910E02817F8093B7
:1042D0000E0271CF90910E02892F8D7F91FF826027
:1042E00080930E0281FF08C08CE39AE00E9474065E
:1042F00080910E028160EBCF8EE29AE0B0CF8FE02A
:104300009AE0ADCF90910E02892F877F93FF88604E
:1043100080930E0283FF03C083E09AE0E7CF86EF2D
:1043200099E09DCF85EA95E00E9474060E94290ECF
:104330001F928F938BE895E09F938F930E940D07B8
:10434000809114011F928F9384E795E09F938F9340
:104350000E940D0780912C021F928F9381E695E0B9
:104360009F938F930E940D070E94771A9F938F93BC
:104370007F936F938AE495E09F938F930E940D073C
:104380008DB79EB742960FB6F8949EBF0FBE8DBFF5
:1043900012CF89536BCF80E008950C94CB218E51BE
:1043A0008A3030F4E82FF0E0E557FE4F8081089521
:1043B00080E00895CF93C82F80911F028130C1F013
:1043C000882339F0823009F447C010921F0280E040
:1043D0000DC00E9431188232D1F78C2F0E94CB2160
:1043E00081111BC08C2F0E94671F8170CF9108958F
:1043F0000E943118823289F38C2F0E94CD218111C5
:104400001BC0C431D9F060F4CB3071F0C031D1F0B1
:104410008BE395E00E94740613C081E090E0E5CF45
:10442000C93261F0C833A1F789EB96E00E947406A7
:1044300081E495E00E94740681E0D7CF10921F02BC
:1044400080E0D3CF0E940F1E8DE395E00E9474069A
:1044500082E080931F02F0CFC432C8F4CE3108F05E
:10446000BEC0CB30E1F040F4C73009F4CCC08FEDD2
:1044700093E00E94740626C0C331C1F1C431B9F77C
:1044800080911E02882351F110921E020AC0CB3483
:1044900009F4B7C0C8F4C93299F3C83341F70E9490
:1044A0000F1E80911E02882309F4C4C01F928F93AF
:1044B00089ED93E09F938F930E940D070F900F90CB
:1044C0000F900F9081E092CFC13509F494C0C235AE
:1044D00009F48BC0CE3459F66AE08EC08EEE93E0BC
:1044E0000E94740681E080931F0280CF88EC93E0E5
:1044F0000E94740686EB93E00E9474068091090185
:104500001F928F9383EB93E09F938F930E940D07ED
:1045100081EB93E00E9474068FE993E00E94740699
:10452000809108011F928F938CE993E09F938F9362
:104530000E940D078AE993E00E9474068BE893E0DD
:104540000E947406809107011F928F9388E893E080
:104550009F938F930E940D0786E893E00E94740654
:1045600085E793E00E947406809106011F928F9365
:1045700082E793E09F938F930E940D0780E793E07B
:104580000E9474068BE593E00E94740680910301FB
:104590001F928F9388E593E09F938F930E940D075E
:1045A00086E593E00E9474068FE393E00E94740610
:1045B000809102011F928F938CE393E09F938F93DE
:1045C0000E940D078AE393E00E9474068DB79EB7A0
:1045D00048960FB6F8949EBF0FBE8DBF62CF8C2F4A
:1045E0000E94CF2180931E025CCF61E080911E0269
:1045F0000E94261E56CF61E080911E020E94CA1EB4
:1046000050CF6AE0F3CF8EE18093090182E380937B
:1046100008018AE08093070184E18093060188E025
:104620008093030188E28093020181EE93E00E946F
:10463000740637CF86ED93E01CCF80912B0208954E
:104640009FB7F894109222029FBF9091400294303D
:1046500009F048C02091E9002F703091EC00932FB1
:10466000917030FD90E8922B23E02093E900209197
:10467000EB0020FF34C02091EE0027FF30C02091D6
:104680002002222321F02091E80025FF28C010926B
:10469000200226E03091E80035FF14C08093F1003D
:1046A0008091E80085FD27C08091E80080FFFCCF65
:1046B0008091E8008E778093E8009F709093E900E6
:1046C00080E0089530914002343049F43091EB009D
:1046D00035FD05C0215041F481E0809320029F7098
:1046E0009093E9008FEF0895EFE9FFE03197F1F73C
:1046F00000C00000CFCF8FB7F89421E020932202B2
:104700008FBFDBCFCF93DF9300D00F92CDB7DEB753
:1047100090914002943019F589837B836A8382E00B
:104720008093E9008FEF9091E800815095FD06C0DD
:1047300095ED9A95F1F700008111F5CF8091E80091
:1047400085FF0DC050E040E063E070E0CE010196CF
:104750000E9426268091E8008E778093E8000F90D3
:104760000F900F90DF91CF910895CF93DF93EC01DD
:104770000E940926823011F0843031F4BE0184E0B9
:10478000DF91CF910C948223DF91CF910895BC01EA
:1047900083E00C948223CF93DF93EC010E940926DF
:1047A000823011F08430F9F482E08093E9008FEFD9
:1047B0009091E800815095FD06C095ED9A95F1F72E
:1047C00000008111F5CF8091E80085FF0CC050E01A
:1047D00040E066E070E0CE010E9426268091E8006D
:1047E0008E778093E800DF91CF910895CF93DF9388
:1047F000EC010E940926823011F0843039F581E005
:104800008093E9008FEF9091E800815095FD06C0FC
:1048100095ED9A95F1F700008111F5CF8091E800B0
:1048200085FF14C050E040E068E070E0CE010E94D7
:1048300026268091E8008E778093E80088E0FE01CC
:10484000A3E2B2E001900D928A95E1F7DF91CF915A
:10485000089583EC9AE00E94740680913F028111D2
:1048600009C00E94B6270E9413288091E20084604C
:104870008093E20008958FEB9AE00E9474061092F4
:104880003F0208958BEB9AE00C94740687EB9AE054
:104890000C94740683EB9AE00E9474060C94331A0D
:1048A000209121022F5F822F62E30E94B62A992372
:1048B00019F0209321020895109221028091220282
:1048C0008823F1F0809140028430C1F49091E90096
:1048D0009F702091EC00822F817020FD80E8892B51
:1048E00093E09093E9009091EB0090FF04C09091C9
:1048F000EE0097FD08C08F708093E90010922202AD
:1049000008951092F1009091E80095FDFACF9091F2
:10491000E80090FFF0CF9091E8009E779093E80038
:10492000EACF42E061EC81E00E94322742E261EC92
:1049300082E00E94322742E261EC83E00C9432274D
:1049400080914202833009F45FC030F48130C1F1BC
:10495000823009F49BC008958A3009F487C08B30F7
:1049600009F46DC0893009F04EC080914102813256
:1049700009F049C08091450290914602029708F0E3
:1049800042C08091E800877F8093E8008091E80032
:1049900082FF35C09091F3008091F200029729F4D4
:1049A0008091F1008B7F813021F48091F100809320
:1049B0002B028091E8008B778093E8000C946627A7
:1049C00080914102813AF9F48091E800877F8093D9
:1049D000E8008091450290914602892B61F468E0DD
:1049E00083E292E070E00E9475268091E8008B7768
:1049F0008093E800089560E090E080E0F3CF80913C
:104A000040028111C3CF089580914102813AD9F7C4
:104A10008091450290914602892BA9F78091E80088
:104A2000877F8093E8008091E80080FFFCCF809131
:104A300014018093F1008091E8008E77BDCF8091C2
:104A40004102813201F78091450290914602892B03
:104A5000D1F68091E800877F8093E8000E94662766
:104A600080914302809314010C942F138091410292
:104A7000813249F68091E800877F8093E8000E94A8
:104A800066278091440280932C0208958091410210
:104A9000813A09F0B8CF8091E800877F8093E800E1
:104AA0008091E80080FFFCCF80912C02C2CF84B7B8
:104AB000877F84BF0FB6F894A895809160008861C5
:104AC00080936000109260000FBE80E890E00FB607
:104AD000F89480936100909361000FBE0E94C90E0C
:104AE0000E94B6270E9413288091E2008460809380
:104AF000E20080E293E20E94D31878940E949B2AFD
:104B00000E94D30E8AE091E00E94240E82EA9AE08D
:104B10000E94740680914002853019F00E94050FB2
:104B2000F9CF8EE99AE00E9474060E94EB198091F9
:104B30003E02882379F30E941C1A882359F30E94AD
:104B40001026E8CF0C94A425292F332723303105D4
:104B500021F168F42130310509F449C022303105D2
:104B600009F44AC090E080E030E020E029C0213222
:104B7000310581F122323105A9F76330710590F7D3
:104B8000FB01EE0FFF1FE856FE4F208131816B566F
:104B90007E4FFB01808190E013C099278130910501
:104BA00099F0009741F08230910589F00397D1F692
:104BB000E7ECFAE002C0E9EEFAE0849190E09F01B0
:104BC000FA01318320830895E7EDFAE0F6CFEDECAA
:104BD000FAE0F3CF6330710528F6660F771FFB010B
:104BE000E256FE4F2081318189E090E0E9CF82E1F9
:104BF00090E028E43BE0E4CF8BE590E02DEE3AE056
:104C0000DFCF80914002843011F482E0089581E08A
:104C1000089580912D02811102C00C9401260895FF
:104C200080E189BD82E189BD09B400FEFDCF80919C
:104C3000D8008F7D8093D8008091E00082608093BF
:104C4000E0008091E00081FDFCCF0895AF92BF921B
:104C5000CF92DF92FF920F931F93CF93DF936C015C
:104C6000EB018A010E948527F82E811123C00115CE
:104C7000110539F0F80180819181C81BD90BC80E4C
:104C8000D91EB12CA12C2097A9F08091E80085FDB8
:104C900022C08091E8008E778093E800011511050D
:104CA000A1F0F80180819181A80EB91EB182A08285
:104CB00085E0F82E8F2DDF91CF911F910F91FF90FE
:104CC000DF90CF90BF90AF9008950E9485278823F2
:104CD000D1F2F82EEFCFF60181916F018093F100B0
:104CE0002197FFEFAF1ABF0ACECFFC018091470298
:104CF0009091480286179707A0F06115710529F475
:104D00009091E8009E779093E80090E0611571051E
:104D100051F4911108C08091E80082FF34C080E016
:104D20000895BC01F2CF809140028823C1F1853003
:104D3000C1F18091E80083FD30C08091E80082FDE0
:104D4000EACF8091E80080FFE1CF8091F3002091CD
:104D5000F200382F6115710519F02830310558F02F
:104D600091E02830310509F090E02091E8002E779D
:104D70002093E800CBCF81918093F10061507109BD
:104D80002F5F3F4FE7CF80914002882341F085306D
:104D900041F08091E80083FFBECF81E0089582E07A
:104DA000089583E00895FC018091470290914802A4
:104DB00086179707A0F06115710529F48091E80026
:104DC0008E778093E80090E06115710551F49111A0
:104DD00008C08091E80082FF35C080E00895BC01E2
:104DE000F2CF809140028823C9F18530C9F18091CA
:104DF000E80083FD31C08091E80082FDEACF809118
:104E0000E80080FFE1CF8091F3002091F200382F7D
:104E10006115710519F02830310558F091E02830FE
:104E2000310509F090E08091E8008E778093E800EA
:104E3000CBCF84918093F1003196615071092F5F3F
:104E40003F4FE6CF80914002882341F0853041F00A
:104E50008091E80083FFBDCF81E0089582E008954E
:104E600083E00895982F973028F08F708093E900A1
:104E700081E008959093E900242F762F50E0981751
:104E800031F07091EC002091ED005091F00021FD87
:104E900002C09F5FE8CF3091EB003E7F3093EB0084
:104EA0003091ED003D7F3093ED003091EB003160AB
:104EB0003093EB007093EC002093ED005093F000E2
:104EC0002091EE0027FDE5CF80E00895809141021A
:104ED00087FF13C08091E80082FF06C08091E80040
:104EE0008B778093E80004C0809140028111F2CF5B
:104EF0000895809140028823D9F38091E80080FFD3
:104F0000F8CF8091E8008E77ECCF2091E4003091CB
:104F1000E50095E6A9012091EC00822F817020FF29
:104F200006C08091E80080FF06C080E008952091CF
:104F3000E80022FD1AC080914002882389F0853064
:104F400089F08091EB0085FD0FC02091E400309145
:104F5000E50042175307F9F29150E1F684E0089515
:104F600082E0089583E0089581E008950E94242856
:104F70000E942C28E0EEF0E0808181608083E8EDE3
:104F8000F0E080818F77808319BCA7EDB0E08C9131
:104F90008E7F8C9380818F7E808310923F02089554
:104FA0000F931F93CF93DF930E9424280E942C28F5
:104FB000C8EDD0E088818F77888388818068888376
:104FC00088818F7D888319BC1092400210923C0228
:104FD00010923E0210923D0200EE10E0F801808136
:104FE0008B7F808388818160888342E060E080E0FD
:104FF0000E943227E1EEF0E080818E7F8083E2EE36
:10500000F0E0808181608083808188608083F80106
:1050100080818E7F8083888180618883DF91CF91BA
:105020001F910F910895E8EDF0E080818F7E8083DD
:10503000E7EDF0E080818160808384E082BF81E0E1
:1050400080933F020C94D027E8EDF0E080818E7FC2
:1050500080831092E20008951092DA001092E1002D
:1050600008951F920F920FB60F9211242F933F9322
:105070004F935F936F937F938F939F93AF93BF9360
:10508000EF93FF938091E10082FF0BC08091E200DB
:1050900082FF07C08091E1008B7F8093E1000E9436
:1050A00050248091DA0080FF19C08091D80080FFE1
:1050B00015C08091DA008E7F8093DA008091D9004C
:1050C00080FF96C080E189BD82E189BD09B400FE00
:1050D000FDCF81E0809340020E9429248091E1006D
:1050E00080FF19C08091E20080FF15C08091E2002E
:1050F0008E7F8093E2008091E20080618093E200E5
:105100008091D80080628093D80019BC85E080939C
:1051100040020E9446248091E10084FF2BC08091D0
:10512000E20084FF27C080E189BD82E189BD89B5A5
:10513000982F917080FFFBCF8091D8008F7D809356
:10514000D8008091E1008F7E8093E1008091E200A1
:105150008F7E8093E2008091E20081608093E20084
:1051600080913C02882309F449C084E08093400286
:105170000E944A248091E10083FF29C08091E200CF
:1051800083FF25C08091E100877F8093E10082E06A
:105190008093400210923C028091E1008E7F8093C8
:1051A000E1008091E2008E7F8093E2008091E20036
:1051B00080618093E20042E060E080E00E9432275C
:1051C0008091F00088608093F0000E944224FF915B
:1051D000EF91BF91AF919F918F917F916F915F916F
:1051E0004F913F912F910F900FBE0F901F901895E8
:1051F00019BC109240020E943B2470CF8091E300C2
:1052000087FD93E090934002B3CF1F920F920FB6A9
:105210000F9211242F933F934F935F936F937F933C
:105220008F939F93AF93BF93CF93DF93EF93FF93AE
:10523000D091E900DF708091EC00C82FC17080FD33
:10524000C0E81092E9008091F000877F8093F00021
:1052500078940E9449291092E9008091F0008860BA
:105260008093F000CD2BCF70C093E900FF91EF91B8
:10527000DF91CF91BF91AF919F918F917F916F916E
:105280005F914F913F912F910F900FBE0F901F9004
:1052900018951F93CF93DF93CDB7DEB7AA970FB6BC
:1052A000F894DEBF0FBECDBF81E492E02091F10003
:1052B000FC012193CF01F2E089349F07B9F70E94E6
:1052C000A0248091E80083FF1EC18091410290914B
:1052D00042029A3008F017C1E92FF0E0E25BF44D8A
:1052E0000C94D62A803899F0823809F00CC180914C
:1052F00045028F70873008F006C18093E9008091E5
:10530000EB0085FB882780F91092E90006C08091A8
:105310003D0290913E02911182609091E800977F4A
:105320009093E8008093F1001092F1008091E800E2
:105330008E77E5C0882309F4D3C0823009F0E3C03A
:10534000809143028111D6C0809145028F702FEF6A
:10535000280F263008F0D7C08093E9002091EB0099
:1053600020FFC8C0933031F48091EB0080628093BD
:10537000EB00C0C09091EB0090619093EB0021E0B6
:1053800030E001C0220F8A95EAF72093EA001092DC
:10539000EA008091EB008860EACF8111B4C01091DF
:1053A00043021F778091E3008078812B8093E30094
:1053B0008091E800877F8093E8000E9466278091B3
:1053C000E80080FFFCCF8091E30080688093E300D9
:1053D00082E0111183E08093400295C080588230B2
:1053E00008F091C080914302909144028C3D23E0EB
:1053F0009207A1F583E08A838AE289834FB7F89404
:10540000DE01139620E03EE051E2E32FF0E05093FE
:105410005700E49120FF03C0E295EF703F5FEF700B
:105420008E2F90E0EA30C0F0C7968D939D932F5F4A
:10543000243159F74FBF8091E800877F8093E800BF
:105440006AE270E0CE0101960E9475268091E80024
:105450008B778093E80057C0C096E7CF60914502F4
:1054600070914602AE014F5F5F4F0E94A225BC01C2
:10547000892B09F448C09091E800977F9093E80049
:1054800089819A810E94D326E1CF8038E1F580910D
:10549000E800877F8093E80080913C028093F100D0
:1054A00045CF811130C090914302923060F58091D8
:1054B000E800877F8093E80090933C020E94662773
:1054C00080913C02882311F084E005C08091E300C4
:1054D00087FDFACF81E0809340020E94912413C09F
:1054E00080914302813079F481E0933009F080E0CB
:1054F00080933E021092E9008091E800877F8093BC
:10550000E8000E9466278091E80083FF0AC080912E
:10551000E800877F8093E8008091EB0080628093B1
:10552000EB00AA960FB6F894DEBF0FBECDBFDF9199
:10553000CF911F910895CF93809140028823A1F0CD
:10554000C091E900CF709091EC00892F817090FD9F
:1055500080E8C82B1092E9008091E80083FD0E944A
:105560004929CF70C093E900CF910895991B79E044
:1055700004C0991F961708F0961B881F7A95C9F7E3
:105580008095089597FB072E16F4009407D077FDB9
:1055900009D00E94DC2A07FC05D03EF49095819545
:1055A0009F4F0895709561957F4F0895EE0FFF1FEF
:1055B0000590F491E02D0994AA1BBB1B51E107C093
:1055C000AA1FBB1FA617B70710F0A61BB70B881F93
:1055D000991F5A95A9F780959095BC01CD01089522
:1055E000F999FECF92BD81BDF89A992780B50895AB
:1055F000A8E1B0E042E050E00C94242B262FF9996A
:10560000FECF92BD81BDF89A019700B4021639F021
:105610001FBA20BD0FB6F894FA9AF99A0FBE0895F2
:105620000396272F0E94FF2A0E94FE2A252F0E9400
:10563000FF2A242F0C94FF2A0196272F0E94FF2A6D
:105640000C94FE2ADC01CB01FC01F999FECF06C0C7
:10565000F2BDE1BDF89A319600B40D924150504030
:10566000B8F70895F894FFCF081108116011601180
:10567000B211CE1135113511D9116512741274128F
:105680003E133E134713471349134713471347135A
:105690003E133E134E13471347134E1372299A2994
:1056A000832A9A29832ACD29EE29832A452A512A39
:1056B00003022808641E140A321E1D23F623CB237E
:1056C000C723B52301E200E900EA00B500B600B740
:1056D00000CD008301CC008A0192019401210223B4
:1056E0000224022502260227022A02B300B4006F18
:1056F000007000818283F4F5F6F700FF01000100DD
:1057000000FFFF0000010001FF00E200E900EA00E5
:10571000B500B600B700CD008301CC008A0192012C
:1057200094012102230224022502260227022A02D2
:10573000B300B4006F00700081828301020304058E
:105740000607080900408122FD0B7C0B5A0BFF0A5B
:04575000180B310BF6
:00000001FF
